:100000000C9453000C947B000C947B000C947B00AC
:100010000C947B000C947B000C947B000C947B0074
:100020000C947B000C947B000C947B000C947B0064
:100030000C947B000C947B000C947B000C947B0054
:100040000C94E3000C947B000C944E030C948003FE
:100050000C947B000C947B000C947B000C947B0034
:100060000C947B000C947B0001020408102040805B
:1000700001020408102001020408102004040404F2
:100080000404040402020202020203030303030342
:1000900000000000250028002B00000000002400C4
:1000A00027002A00B00311241FBECFEFD8E0DEBF27
:1000B000CDBF11E0A0E0B1E0E6EAFEE002C00590AD
:1000C0000D92A033B107D9F721E0A0E3B1E001C060
:1000D0001D92A63DB207E1F710E0C6EAD0E004C0E9
:1000E0002297FE010E947C04C43AD107C9F70E94FE
:1000F00048040C9451070C94000026E040E855E2B7
:1001000060E070E089E391E00E94EC0260E082E14F
:100110000C94D001CF92DF92EF92FF920F931F9336
:10012000CF93DF93CDB7DEB7CF5FD1090FB6F89489
:10013000DEBF0FBECDBF84E6C82ED12CE12CF12C42
:100140000FEF10E082E10E94B3010F3F110519F09B
:10015000801791070CF48C01E816F9060CF47C0169
:100160006AE070E080E090E00E94500181E0C81AEF
:10017000D10841F7FF92EF921F930F9381E091E036
:100180009F938F938E010F5F1F4F1F930F930E94BA
:100190008004B80189E391E00E9435040FB6F89419
:1001A000DEBF0FBECDBFC150DF4F0FB6F894DEBF2C
:1001B0000FBECDBFDF91CF911F910F91FF90EF90B8
:1001C000DF90CF9008951F920F920FB60F921124D7
:1001D0002F933F938F939F93AF93BF938091310160
:1001E00090913201A0913301B091340130913001EE
:1001F00023E0230F2D3720F40196A11DB11D05C06A
:1002000026E8230F0296A11DB11D20933001809393
:10021000310190933201A0933301B0933401809166
:10022000350190913601A0913701B09138010196C6
:10023000A11DB11D8093350190933601A093370124
:10024000B0933801BF91AF919F918F913F912F91C2
:100250000F900FBE0F901F9018953FB7F8948091A4
:10026000350190913601A0913701B091380126B542
:10027000A89B05C02F3F19F00196A11DB11D3FBFDE
:100280006627782F892F9A2F620F711D811D911D6E
:1002900042E0660F771F881F991F4A95D1F708958E
:1002A000CF92DF92EF92FF92CF93DF936B017C01AD
:1002B0000E942D01EB01C114D104E104F10489F085
:1002C0000E9457040E942D016C1B7D0B683E7340F9
:1002D00090F381E0C81AD108E108F108C851DC4F59
:1002E000EACFDF91CF91FF90EF90DF90CF9008950C
:1002F000789484B5826084BD84B5816084BD85B501
:10030000826085BD85B5816085BDEEE6F0E08081C7
:1003100081608083E1E8F0E01082808182608083E8
:10032000808181608083E0E8F0E08081816080836B
:10033000E1EBF0E0808184608083E0EBF0E080819D
:1003400081608083EAE7F0E080818460808380813F
:1003500082608083808181608083808180688083E7
:100360001092C10008958E3008F08E508770209151
:10037000000190E4299F90011124822B80937C003E
:1003800080917A00806480937A0080917A0086FD63
:10039000FCCF809178002091790090E0922B089515
:1003A000CF93DF9390E0FC01E859FF4F2491FC01CB
:1003B000E458FF4F8491882349F190E0880F991FFA
:1003C000FC01E656FF4FA591B49180579F4FFC0169
:1003D000C591D4919FB7611108C0F8948C91209574
:1003E00082238C93888182230AC0623051F4F8946E
:1003F0008C91322F309583238C938881822B888334
:1004000004C0F8948C91822B8C939FBFDF91CF9185
:100410000895FC01818D228D90E0805C9F4F821BAE
:1004200091098F7399270895FC01918D828D9817FA
:1004300031F0828DE80FF11D858D90E008958FEFEA
:100440009FEF0895FC01918D828D981761F0828D48
:10045000DF01A80FB11D5D968C91928D9F5F9F73F8
:10046000928F90E008958FEF9FEF089586EA93E0D2
:10047000892B49F080E090E0892B29F00E94A603A7
:1004800081110C9400000895FC01848DDF01A80FF8
:10049000B11DA35ABF4F2C91848D90E001968F73AC
:1004A0009927848FA689B7892C93A089B1898C91CB
:1004B00080648C93938D848D981306C00288F38991
:1004C000E02D80818F7D80830895CF93DF93EC01B1
:1004D000888D8823C9F0EA89FB89808185FD05C064
:1004E000A889B9898C9186FD0FC00FB607FCF5CF9E
:1004F000808185FFF2CFA889B9898C9185FFEDCFE6
:10050000CE010E944402E7CFDF91CF910895CF92B0
:10051000DF92FF920F931F93CF93DF931F92CDB77C
:10052000DEB76C0181E0D60158968C9358975B96A4
:100530009C915B975C968C915C97981307C0509642
:10054000ED91FC915197808185FD2EC0F601038DC0
:1005500010E00F5F1F4F0F731127F02EF601848DEF
:10056000F81211C00FB607FCF9CFD6015096ED91E5
:10057000FC915197808185FFF1CFC60169830E946C
:1005800044026981EBCF838DE80FF11DE35AFF4FE1
:100590006083D6015B960C935B975296ED91FC912C
:1005A0005397808180620CC0D6015696ED91FC91E4
:1005B000579760835096ED91FC91519780818064AC
:1005C000808381E090E00F90DF91CF911F910F9198
:1005D000FF90DF90CF900895BF92CF92DF92EF927D
:1005E000FF92CF93DF93EC016A017B01B22EE88981
:1005F000F98982E08083411581EE58076105710514
:10060000A1F060E079E08DE390E0A70196010E94FF
:10061000580421503109410951095695479537959C
:100620002795211580E1380798F0E889F98910822B
:1006300060E874E88EE190E0A70196010E945804FA
:10064000215031094109510956954795379527950C
:10065000EC85FD853083EE85FF852083188EEC893F
:10066000FD89B082EA89FB89808180618083EA8983
:10067000FB89808188608083EA89FB89808180682A
:100680008083EA89FB8980818F7D8083DF91CF9190
:10069000FF90EF90DF90CF90BF9008951F920F9240
:1006A0000FB60F9211242F938F939F93EF93FF9385
:1006B000E0914901F0914A018081E0914F01F09170
:1006C000500182FD12C09081809152018F5F8F7323
:1006D00020915301821751F0E0915201F0E0E75C64
:1006E000FE4F958F8093520101C08081FF91EF9161
:1006F0009F918F912F910F900FBE0F901F90189583
:100700001F920F920FB60F9211242F933F934F9386
:100710005F936F937F938F939F93AF93BF93EF9369
:10072000FF9389E391E00E944402FF91EF91BF9112
:10073000AF919F918F917F916F915F914F913F9179
:100740002F910F900FBE0F901F90189589E391E0A5
:100750000E94090221E0892B09F420E0822F0895EC
:1007600010923C0110923B0188EE93E0A0E0B0E0D3
:1007700080933D0190933E01A0933F01B0934001CF
:1007800083E191E090933A018093390185EC90E008
:10079000909346018093450184EC90E0909348014A
:1007A0008093470180EC90E090934A018093490147
:1007B00081EC90E090934C0180934B0182EC90E0AF
:1007C00090934E0180934D0186EC90E09093500100
:1007D00080934F01109252011092530110925401D4
:1007E000109255010895CF92DF92EF92FF920F93EE
:1007F0001F93CF93DF936C017A01EB01E60EF71E96
:1008000000E010E0CE15DF0561F06991D601ED91B1
:10081000FC910190F081E02DC6010995080F191F88
:10082000F1CFC801DF91CF911F910F91FF90EF9011
:10083000DF90CF9008956115710581F0DB010D9077
:100840000020E9F7AD0141505109461B570BDC016F
:10085000ED91FC910280F381E02D099480E090E01D
:1008600008956FE171E00C941B040F931F93CF93D5
:10087000DF93EC010E941B048C01CE010E94310425
:10088000800F911FDF91CF911F910F9108950895CF
:100890000E9478010E9447040E947D00C6E3D2E0D6
:1008A0000E948A002097E1F30E943602F9CF089552
:1008B000A1E21A2EAA1BBB1BFD010DC0AA1FBB1F64
:1008C000EE1FFF1FA217B307E407F50720F0A21BD6
:1008D000B30BE40BF50B661F771F881F991F1A9443
:1008E00069F760957095809590959B01AC01BD016D
:1008F000CF010895EE0FFF1F0590F491E02D0994AC
:10090000AEE0B0E0E6E8F4E00C9428070D891E891B
:1009100086E08C831A8309838FEF9FE79E838D8304
:10092000AE01475E5F4F6F89788DCE0101960E94C0
:10093000A204EF81F885E00FF11F10822E96E4E00B
:100940000C944407ACE0B0E0E8EAF4E00C941A0739
:100950007C016B018A01FC0117821682838181FF71
:10096000BDC1CE0101964C01F7019381F60193FDC3
:10097000859193FF81916F01882309F4ABC1853282
:1009800039F493FD859193FF81916F01853229F4AC
:10099000B70190E00E948A06E7CF512C312C20E06D
:1009A0002032A0F48B3269F030F4803259F0833277
:1009B00069F420612CC08D3239F0803339F4216024
:1009C00026C02260246023C0286021C027FD27C0E4
:1009D00030ED380F3A3078F426FF06C0FAE05F9E1B
:1009E000300D1124532E13C08AE0389E300D11248F
:1009F000332E20620CC08E3221F426FD6BC12064A0
:100A000006C08C3611F4206802C0883641F4F60125
:100A100093FD859193FF81916F018111C1CF982F33
:100A20009F7D9554933028F40C5F1F4FFFE3F983AB
:100A30000DC0833631F0833771F0833509F05BC028
:100A400022C0F801808189830E5F1F4F44244394A4
:100A5000512C540115C03801F2E06F0E711CF801E1
:100A6000A080B18026FF03C0652D70E002C06FEF4B
:100A70007FEFC5012C870E947F062C0183012C8506
:100A80002F77222E17C03801F2E06F0E711CF8018B
:100A9000A080B18026FF03C0652D70E002C06FEF1B
:100AA0007FEFC5012C870E9474062C012C852068DD
:100AB000222E830123FC1BC0832D90E0481659068B
:100AC000B0F4B70180E290E00E948A063A94F4CF35
:100AD000F50127FC859127FE81915F01B70190E028
:100AE0000E948A0631103A94F1E04F1A51084114DD
:100AF000510471F7E5C0843611F0893639F5F801F3
:100B000027FF07C060817181828193810C5F1F4F35
:100B100008C060817181882777FD8095982F0E5FCE
:100B20001F4F2F76B22E97FF09C090958095709534
:100B300061957F4F8F4F9F4F2068B22E2AE030E0A3
:100B4000A4010E94BC06A82EA81844C0853729F429
:100B50002F7EB22E2AE030E025C0F22FF97FBF2E83
:100B60008F36C1F018F4883579F0B4C0803719F0A9
:100B7000883721F0AFC02F2F2061B22EB4FE0DC0F8
:100B80008B2D8460B82E09C024FF0AC09F2F966069
:100B9000B92E06C028E030E005C020E130E002C0F8
:100BA00020E132E0F801B7FE07C0608171818281E7
:100BB00093810C5F1F4F06C06081718180E090E0DF
:100BC0000E5F1F4FA4010E94BC06A82EA818FB2D83
:100BD000FF77BF2EB6FE0BC02B2D2E7FA51450F431
:100BE000B4FE0AC0B2FC08C02B2D2E7E05C07A2CA4
:100BF0002B2D03C07A2C01C0752C24FF0DC0FE01E3
:100C0000EA0DF11D8081803311F4297E09C022FF95
:100C100006C07394739404C0822F867809F073948D
:100C200023FD13C020FF06C05A2C731418F4530C74
:100C30005718732C731468F4B70180E290E02C8786
:100C40000E948A0673942C85F5CF731410F437181C
:100C500001C0312C24FF12C0B70180E390E02C8743
:100C60000E948A062C8522FF17C021FF03C088E559
:100C700090E002C088E790E0B7010CC0822F867830
:100C800059F021FD02C080E201C08BE227FD8DE218
:100C9000B70190E00E948A06A51438F4B70180E3FA
:100CA00090E00E948A065A94F7CFAA94F401EA0DC4
:100CB000F11D8081B70190E00E948A06A110F5CF56
:100CC000332009F451CEB70180E290E00E948A06F9
:100CD0003A94F6CFF7018681978102C08FEF9FEF9C
:100CE0002C96E2E10C943607FC01059061507040AF
:100CF0000110D8F7809590958E0F9F1F0895FC01E5
:100D00006150704001900110D8F7809590958E0F3A
:100D10009F1F08950F931F93CF93DF93182F092FD1
:100D2000EB018B8181FD03C08FEF9FEF20C082FF1D
:100D300010C04E815F812C813D81421753077CF4A6
:100D4000E881F9819F012F5F3F4F3983288310830A
:100D500006C0E885F985812F0995892B29F72E8111
:100D60003F812F5F3F4F3F832E83812F902FDF9155
:100D7000CF911F910F910895FA01AA27283051F1C0
:100D8000203181F1E8946F936E7F6E5F7F4F8F4FBC
:100D90009F4FAF4FB1E03ED0B4E03CD0670F781F1B
:100DA000891F9A1FA11D680F791F8A1F911DA11D00
:100DB0006A0F711D811D911DA11D20D009F4689439
:100DC0003F912AE0269F11243019305D3193DEF6E1
:100DD000CF010895462F4770405D4193B3E00FD097
:100DE000C9F7F6CF462F4F70405D4A3318F0495D82
:100DF00031FD4052419302D0A9F7EACFB4E0A69565
:100E00009795879577956795BA95C9F70097610586
:100E1000710508959B01AC010A2E069457954795DC
:100E200037952795BA95C9F7620F731F841F951FD1
:100E3000A01D08952F923F924F925F926F927F92E2
:100E40008F929F92AF92BF92CF92DF92EF92FF92DA
:100E50000F931F93CF93DF93CDB7DEB7CA1BDB0B86
:100E60000FB6F894DEBF0FBECDBF09942A8839882B
:100E700048885F846E847D848C849B84AA84B98432
:100E8000C884DF80EE80FD800C811B81AA81B9813E
:100E9000CE0FD11D0FB6F894DEBF0FBECDBFED0152
:060EA0000895F894FFCF55
:100EA600016D696E3D2564206D61783D2564000005
:100EB6000000008702F30309022202140265020DF4
:100EC6000A006E616E00696E66006F7666002E001F
:00000001FF
