:100000000C945D000C9485000C9485000C94850084
:100010000C9485000C9485000C9485000C9485004C
:100020000C9485000C9485000C9485000C9485003C
:100030000C9485000C9485000C9485000C9485002C
:100040000C94E3010C9485000C940C050C943E0573
:100050000C9485000C9485000C9485000C9485000C
:100060000C9485000C94850000000008000201003B
:100070000003040700000000000000000102040863
:100080001020408001020408102001020408102002
:10009000040404040404040402020202020203032E
:1000A0000303030300000000250028002B000000CC
:1000B0000000240027002A006E0511241FBECFEF88
:1000C000D8E0DEBFCDBF11E0A0E0B1E0E6E1F2E1B3
:1000D00002C005900D92A63AB107D9F722E0A6EA30
:1000E000B1E001C01D92AE34B207E1F710E0CAEBF7
:1000F000D0E004C02297FE010E943A06C83BD10717
:10010000C9F70E9406060C9409090C940000CF93CD
:10011000DF93CDB7DEB7CF5FD1090FB6F894DEBF5E
:100120000FBECDBFFE01EC5FFE4F61917191AF013B
:10013000CE0101960E943E06BE016F5F7F4F81EBAC
:1001400091E00E94F305C150DF4F0FB6F894DEBF77
:100150000FBECDBFDF91CF91089583E10E94B3021E
:100160009C01295F314081E02031310508F480E0B5
:10017000089560E070E08BE00C94D0029B01241B9A
:10018000350B821793074CF0640F751F21E0681739
:1001900079070CF420E0822F089580E00895EF9213
:1001A000FF921F93CF93DF931F92CDB7DEB7182F27
:1001B0007B019F938F9323E031E03F932F930E9425
:1001C00087006FEF70E08BE00E94D002612F8CE01F
:1001D0000E9491030F900F900F900F901E141F0418
:1001E00074F4B701882777FD8095982F0E945002FC
:1001F0000E94AD0089830E94B900898101C081E01D
:100200000F90DF91CF911F91FF90EF9008958F3F56
:100210002FEF920729F4809100019091010101963E
:100220008170992790930101809300010895AF9206
:10023000BF92CF92DF92EF92FF920F931F93CF93D3
:10024000DF931F92CDB7DEB7C82E162F5A01BF928B
:100250004F937F936F9320E231E03F932F93798305
:100260000E94870060E070E0812F99810E94CF009A
:100270000F900F900F900F900F900F90850185E5D4
:10028000E82E81E0F82E61E070E080E090E00E94CE
:1002900050020E94AD00D82E0A151B050CF48501F2
:1002A0008C2D0E94B3025C01BF928F931F92DF924C
:1002B000FF92EF920E94870042E050E0B801C50132
:1002C0000E94BE000F900F900F900F900F900F9014
:1002D000DD2011F08111D7CF0E94B9008D2D0F9034
:1002E000DF91CF911F910F91FF90EF90DF90CF9012
:1002F000BF90AF900895EF92FF920F931F93CF930B
:10030000DF9382E10E94B3028C016091A60170919B
:10031000A70142E050E00E94BE0081112DC0609113
:10032000000170910101A80182E190E00E94170193
:10033000E82E82E10E94B302EC0102501109FF2471
:10034000F394801791070CF0F12CEE2011F0FF20B0
:1003500079F08FEF9FEF0E940701FF2049F0609135
:10036000000170910101AE0182E190E00E9417014D
:10037000D093A701C093A601DF91CF911F910F9158
:10038000FF90EF90089526E040E855E260E070E0CD
:1003900081EB91E00E94AA0461E08BE00E94580387
:1003A00061E08CE00E94580360E083E10E94580302
:1003B00086E791E09F938F930E9487000F900F90A4
:1003C00008950C947B011F920F920FB60F92112487
:1003D0002F933F938F939F93AF93BF938091A901E6
:1003E0009091AA01A091AB01B091AC013091A8010C
:1003F00023E0230F2D3720F40196A11DB11D05C068
:1004000026E8230F0296A11DB11D2093A801809319
:10041000A9019093AA01A093AB01B093AC01809184
:10042000AD019091AE01A091AF01B091B0010196E4
:10043000A11DB11D8093AD019093AE01A093AF01BA
:10044000B093B001BF91AF919F918F913F912F9148
:100450000F900FBE0F901F9018953FB7F8948091A2
:10046000AD019091AE01A091AF01B091B00126B560
:10047000A89B05C02F3F19F00196A11DB11D3FBFDC
:100480006627782F892F9A2F620F711D811D911D6C
:1004900042E0660F771F881F991F4A95D1F708958C
:1004A000CF92DF92EF92FF92CF93DF936B017C01AB
:1004B0000E942D02EB01C114D104E104F10489F082
:1004C0000E9415060E942D026C1B7D0B683E734036
:1004D00090F381E0C81AD108E108F108C851DC4F57
:1004E000EACFDF91CF91FF90EF90DF90CF9008950A
:1004F000789484B5826084BD84B5816084BD85B5FF
:10050000826085BD85B5816085BDEEE6F0E08081C5
:1005100081608083E1E8F0E01082808182608083E6
:10052000808181608083E0E8F0E080818160808369
:10053000E1EBF0E0808184608083E0EBF0E080819B
:1005400081608083EAE7F0E080818460808380813D
:1005500082608083808181608083808180688083E5
:100560001092C10008958E3008F08E50877020914F
:10057000020190E4299F90011124822B80937C003A
:1005800080917A00806480937A0080917A0086FD61
:10059000FCCF809178002091790090E0922B089513
:1005A0001F93CF93DF93182FEB0161E00E94580354
:1005B000209711F460E004C0CF3FD10539F461E029
:1005C000812FDF91CF911F910C949103E12FF0E0E7
:1005D000E859FF4FE491E330F9F048F4E130B9F025
:1005E000E230A1F584B5806284BDC8BD34C0E73077
:1005F000E9F0E83019F1E43049F58091800080623B
:1006000080938000D0938B00C0938A0024C084B56F
:10061000806884BDC7BD1FC08091800080688093C2
:100620008000D0938900C093880015C08091B000ED
:1006300080688093B000C093B3000DC08091B0007B
:1006400080628093B000C093B40005C0C038D1056B
:100650000CF0B5CFAFCFDF91CF911F9108958330CC
:1006600081F028F4813099F08230A1F0089587302C
:10067000A9F08830B9F08430D1F4809180008F7D6A
:1006800003C0809180008F7780938000089584B5A7
:100690008F7702C084B58F7D84BD08958091B000AE
:1006A0008F7703C08091B0008F7D8093B000089554
:1006B000CF93DF9390E0FC01E458FF4F2491FC01BD
:1006C000E057FF4F8491882349F190E0880F991FEC
:1006D000FC01E255FF4FA591B4918C559F4FFC0151
:1006E000C591D4919FB7611108C0F8948C91209561
:1006F00082238C93888182230AC0623051F4F8945B
:100700008C91322F309583238C938881822B888320
:1007100004C0F8948C91822B8C939FBFDF91CF9172
:1007200008950F931F93CF93DF931F92CDB7DEB73A
:10073000282F30E0F901E859FF4F8491F901E4587E
:10074000FF4F1491F901E057FF4F04910023C9F0C6
:10075000882321F069830E942F036981E02FF0E054
:10076000EE0FFF1FEC55FF4FA591B4919FB7F89482
:100770008C91611103C01095812301C0812B8C9352
:100780009FBF0F90DF91CF911F910F910895FC01B2
:10079000818D228D90E0805C9F4F821B91098F7329
:1007A00099270895FC01918D828D981731F0828DE3
:1007B000E80FF11D858D90E008958FEF9FEF08956C
:1007C000FC01918D828D981761F0828DDF01A80F59
:1007D000B11D5D968C91928D9F5F9F73928F90E07B
:1007E00008958FEF9FEF089584E695E0892B49F0F7
:1007F00080E090E0892B29F00E94640581110C941F
:1008000000000895FC01848DDF01A80FB11DA35ADB
:10081000BF4F2C91848D90E001968F739927848F20
:10082000A689B7892C93A089B1898C9180648C9317
:10083000938D848D981306C00288F389E02D808102
:100840008F7D80830895CF93DF93EC01888D88237B
:10085000C9F0EA89FB89808185FD05C0A889B9892D
:100860008C9186FD0FC00FB607FCF5CF808185FF08
:10087000F2CFA889B9898C9185FFEDCFCE010E9476
:100880000204E7CFDF91CF910895CF92DF92FF92DC
:100890000F931F93CF93DF931F92CDB7DEB76C01F9
:1008A00081E0D60158968C9358975B969C915B9704
:1008B0005C968C915C97981307C05096ED91FC91D3
:1008C0005197808185FD2EC0F601038D10E00F5FEA
:1008D0001F4F0F731127F02EF601848DF81211C0EF
:1008E0000FB607FCF9CFD6015096ED91FC915197C8
:1008F000808185FFF1CFC60169830E94020469816E
:10090000EBCF838DE80FF11DE35AFF4F6083D601D3
:100910005B960C935B975296ED91FC915397808177
:1009200080620CC0D6015696ED91FC91579760837A
:100930005096ED91FC91519780818064808381E095
:1009400090E00F90DF91CF911F910F91FF90DF907A
:10095000CF900895BF92CF92DF92EF92FF92CF9304
:10096000DF93EC016A017B01B22EE889F98982E00C
:100970008083411581EE580761057105A1F060E0A3
:1009800079E08DE390E0A70196010E9416062150C0
:1009900031094109510956954795379527952115F4
:1009A00080E1380798F0E889F989108260E874E8F6
:1009B0008EE190E0A70196010E94160621503109B0
:1009C000410951095695479537952795EC85FD8541
:1009D0003083EE85FF852083188EEC89FD89B082F7
:1009E000EA89FB89808180618083EA89FB89808133
:1009F00088608083EA89FB89808180688083EA89B6
:100A0000FB8980818F7D8083DF91CF91FF90EF9074
:100A1000DF90CF90BF9008951F920F920FB60F9264
:100A200011242F938F939F93EF93FF93E091C10134
:100A3000F091C2018081E091C701F091C80182FD6F
:100A400012C090818091CA018F5F8F732091CB017A
:100A5000821751F0E091CA01F0E0EF54FE4F958FFC
:100A60008093CA0101C08081FF91EF919F918F9186
:100A70002F910F900FBE0F901F9018951F920F92FD
:100A80000FB60F9211242F933F934F935F936F9361
:100A90007F938F939F93AF93BF93EF93FF9381EBDC
:100AA00091E00E940204FF91EF91BF91AF919F915D
:100AB0008F917F916F915F914F913F912F910F9007
:100AC0000FBE0F901F90189581EB91E00E94C70315
:100AD00021E0892B09F420E0822F08951092B401BF
:100AE0001092B30188EE93E0A0E0B0E08093B501EE
:100AF0009093B601A093B701B093B80189E891E053
:100B00009093B2018093B10185EC90E09093BE0187
:100B10008093BD0184EC90E09093C0018093BF016D
:100B200080EC90E09093C2018093C10181EC90E051
:100B30009093C4018093C30182EC90E09093C6012E
:100B40008093C50186EC90E09093C8018093C70123
:100B50001092CA011092CB011092CC011092CD01DB
:100B60000895CF92DF92EF92FF920F931F93CF934E
:100B7000DF936C017A01EB01E60EF71E00E010E056
:100B8000CE15DF0561F06991D601ED91FC910190E0
:100B9000F081E02DC6010995080F191FF1CFC8019A
:100BA000DF91CF911F910F91FF90EF90DF90CF9049
:100BB00008956115710581F0DB010D900020E9F7C2
:100BC000AD0141505109461B570BDC01ED91FC91E1
:100BD0000280F381E02D099480E090E0089565E9BA
:100BE00071E00C94D9050F931F93CF93DF93EC0121
:100BF0000E94D9058C01CE010E94EF05800F911F44
:100C0000DF91CF911F910F91089508950E9478026E
:100C10000E9405060E94C301C4EFD3E00E94E101D7
:100C20002097E1F30E94F403F9CF0895A1E21A2E70
:100C3000AA1BBB1BFD010DC0AA1FBB1FEE1FFF1F80
:100C4000A217B307E407F50720F0A21BB30BE40BD0
:100C5000F50B661F771F881F991F1A9469F7609517
:100C60007095809590959B01AC01BD01CF010895D1
:100C7000EE0FFF1F0590F491E02D0994AEE0B0E077
:100C8000E4E4F6E00C94E0088C0186E08C831A839F
:100C900009838FEF9FE79E838D83CE0101960E948B
:100CA0005A06EF81F885E00FF11F10822E96E4E0DE
:100CB0000C94FC08ACE0B0E0E0E6F6E00C94D2085E
:100CC0007C016B018A01FC0117821682838181FFFE
:100CD000BDC1CE0101964C01F7019381F60193FD50
:100CE000859193FF81916F01882309F4ABC185320F
:100CF00039F493FD859193FF81916F01853229F439
:100D0000B70190E00E944208E7CF512C312C20E03F
:100D10002032A0F48B3269F030F4803259F0833203
:100D200069F420612CC08D3239F0803339F42160B0
:100D300026C02260246023C0286021C027FD27C070
:100D400030ED380F3A3078F426FF06C0FAE05F9EA7
:100D5000300D1124532E13C08AE0389E300D11241B
:100D6000332E20620CC08E3221F426FD6BC120642C
:100D700006C08C3611F4206802C0883641F4F601B2
:100D800093FD859193FF81916F018111C1CF982FC0
:100D90009F7D9554933028F40C5F1F4FFFE3F98338
:100DA0000DC0833631F0833771F0833509F05BC0B5
:100DB00022C0F801808189830E5F1F4F4424439431
:100DC000512C540115C03801F2E06F0E711CF8016E
:100DD000A080B18026FF03C0652D70E002C06FEFD8
:100DE0007FEFC5012C870E9437082C0183012C85D9
:100DF0002F77222E17C03801F2E06F0E711CF80118
:100E0000A080B18026FF03C0652D70E002C06FEFA7
:100E10007FEFC5012C870E942C082C012C852068AF
:100E2000222E830123FC1BC0832D90E04816590617
:100E3000B0F4B70180E290E00E9442083A94F4CF07
:100E4000F50127FC859127FE81915F01B70190E0B4
:100E50000E94420831103A94F1E04F1A51084114AF
:100E6000510471F7E5C0843611F0893639F5F8017F
:100E700027FF07C060817181828193810C5F1F4FC2
:100E800008C060817181882777FD8095982F0E5F5B
:100E90001F4F2F76B22E97FF09C0909580957095C1
:100EA00061957F4F8F4F9F4F2068B22E2AE030E030
:100EB000A4010E947408A82EA81844C0853729F4FC
:100EC0002F7EB22E2AE030E025C0F22FF97FBF2E10
:100ED0008F36C1F018F4883579F0B4C0803719F036
:100EE000883721F0AFC02F2F2061B22EB4FE0DC085
:100EF0008B2D8460B82E09C024FF0AC09F2F9660F6
:100F0000B92E06C028E030E005C020E130E002C084
:100F100020E132E0F801B7FE07C060817181828173
:100F200093810C5F1F4F06C06081718180E090E06B
:100F30000E5F1F4FA4010E947408A82EA818FB2D55
:100F4000FF77BF2EB6FE0BC02B2D2E7FA51450F4BD
:100F5000B4FE0AC0B2FC08C02B2D2E7E05C07A2C30
:100F60002B2D03C07A2C01C0752C24FF0DC0FE016F
:100F7000EA0DF11D8081803311F4297E09C022FF22
:100F800006C07394739404C0822F867809F073941A
:100F900023FD13C020FF06C05A2C731418F4530C01
:100FA0005718732C731468F4B70180E290E02C8713
:100FB0000E94420873942C85F5CF731410F43718EF
:100FC00001C0312C24FF12C0B70180E390E02C87D0
:100FD0000E9442082C8522FF17C021FF03C088E52C
:100FE00090E002C088E790E0B7010CC0822F8678BD
:100FF00059F021FD02C080E201C08BE227FD8DE2A5
:10100000B70190E00E944208A51438F4B70180E3CC
:1010100090E00E9442085A94F7CFAA94F401EA0D96
:10102000F11D8081B70190E00E944208A110F5CF28
:10103000332009F451CEB70180E290E00E944208CB
:101040003A94F6CFF7018681978102C08FEF9FEF28
:101050002C96E2E10C94EE08FC0105906150704082
:101060000110D8F7809590958E0F9F1F0895FC0171
:101070006150704001900110D8F7809590958E0FC7
:101080009F1F08950F931F93CF93DF93182F092F5E
:10109000EB018B8181FD03C08FEF9FEF20C082FFAA
:1010A00010C04E815F812C813D81421753077CF433
:1010B000E881F9819F012F5F3F4F39832883108397
:1010C00006C0E885F985812F0995892B29F72E819E
:1010D0003F812F5F3F4F3F832E83812F902FDF91E2
:1010E000CF911F910F910895FA01AA27283051F14D
:1010F000203181F1E8946F936E7F6E5F7F4F8F4F49
:101100009F4FAF4FB1E03ED0B4E03CD0670F781FA7
:10111000891F9A1FA11D680F791F8A1F911DA11D8C
:101120006A0F711D811D911DA11D20D009F46894C5
:101130003F912AE0269F11243019305D3193DEF66D
:10114000CF010895462F4770405D4193B3E00FD023
:10115000C9F7F6CF462F4F70405D4A3318F0495D0E
:1011600031FD4052419302D0A9F7EACFB4E0A695F1
:101170009795879577956795BA95C9F70097610513
:10118000710508959B01AC010A2E06945795479569
:1011900037952795BA95C9F7620F731F841F951F5E
:1011A000A01D08952F923F924F925F926F927F926F
:1011B0008F929F92AF92BF92CF92DF92EF92FF9267
:1011C0000F931F93CF93DF93CDB7DEB7CA1BDB0B13
:1011D0000FB6F894DEBF0FBECDBF09942A883988B8
:1011E00048885F846E847D848C849B84AA84B984BF
:1011F000C884DF80EE80FD800C811B81AA81B981CB
:10120000CE0FD11D0FB6F894DEBF0FBECDBFED01DE
:061210000895F894FFCFE1
:101216000100016D6F76696E672061637475617494
:101226006F7220646972656374696F6E3D25640030
:101236007365656B696E6720746F206869676820DF
:10124600696E70757420696E20646972656374696D
:101256006F6E2025642E20696E70757456616C75EC
:10126600653D2564007374696C6C4D6F76696E67B5
:101276003D2564206E657874496E70757456616C90
:1012860075653D256400736574757020636F6D70B8
:101296006C65746500000000004504B105C703E0F5
:1012A60003D20323040D0A006E616E00696E6600A8
:0612B6006F7666002E00B9
:00000001FF
