:100000000C945D000C9485000C9485000C94850084
:100010000C9485000C9485000C9485000C9485004C
:100020000C9485000C9485000C9485000C9485003C
:100030000C9485000C9485000C9485000C9485002C
:100040000C949E010C9485000C94D3040C9405052B
:100050000C9485000C9485000C9485000C9485000C
:100060000C9485000C94850000000008000201003B
:100070000003040700000000000000000102040863
:100080001020408001020408102001020408102002
:10009000040404040404040402020202020203032E
:1000A0000303030300000000250028002B000000CC
:1000B0000000240027002A00350511241FBECFEFC1
:1000C000D8E0DEBFCDBF11E0A0E0B1E0E4EAF1E1AD
:1000D00002C005900D92AA3CB107D9F722E0AAEC24
:1000E000B1E001C01D92A037B207E1F710E0CAEB02
:1000F000D0E004C02297FE010E940106C83BD10750
:10010000C9F70E94CD050C94D0080C940000CF9341
:10011000DF93CDB7DEB7CF5FD1090FB6F894DEBF5E
:100120000FBECDBFFE01EC5FFE4F61917191AF013B
:10013000CE0101960E940506BE016F5F7F4F83EDE1
:1001400091E00E94BA05C150DF4F0FB6F894DEBFB0
:100150000FBECDBFDF91CF910895CF93DF9383E1A1
:100160000E947A02EC01DF93CF9381E091E09F93AC
:100170008F930E948700C95FD14081E00F900F905C
:100180000F900F90609708F480E0DF91CF91089571
:100190001F93CF93DF9300D0CDB7DEB7182F7F9397
:1001A0006F939F938F9328E131E03F932F9369835F
:1001B0007A830E94870069817A818BE00E9497028E
:1001C000612F8CE00E9458030F900F900F900F90BA
:1001D0000F900F9068EC70E080E090E00F900F902F
:1001E000DF91CF911F910C94170260E070E08BE0DB
:1001F0000C949702CF92DF92EF92FF92CF93DF930E
:10020000EC010E94E8016B017C016FEF70E0CE0110
:100210000E94C80064E670E080E090E00E9417024F
:100220000E94AD00882329F06CE271E080E090E04C
:10023000F5CF0E94F5000E94E8016C197D098E0936
:100240009F09DF91CF91FF90EF90DF90CF900895BD
:1002500026E040E855E260E070E083ED91E00E9426
:10026000710461E08BE00E941F0361E08CE00E945A
:100270001F0360E083E10E941F038FE391E09F93DF
:100280008F930E9487000F900F900895EF92FF9236
:100290000F931F93CF93DF930E94AD00882369F0E3
:1002A0008EE491E09F938F930E9487000F900F90B0
:1002B0006AEF70E080E090E039C080E090E00E945A
:1002C000FA0060ED77E080E090E00E94170202E023
:1002D00010E0C0E0D0E08AE8E82E81E0F82E219618
:1002E000C170DD27CE010E94FA009F938F937F9308
:1002F0006F93DF93CF93FF92EF920E94870068EE97
:1003000073E080E090E00E941702015011098DB760
:100310009EB708960FB6F8949EBF0FBE8DBF01150D
:100320001105E9F660E177E280E090E0DF91CF919E
:100330001F910F91FF90EF900C9417021F920F9254
:100340000FB60F9211242F933F938F939F93AF93E8
:10035000BF938091CB019091CC01A091CD01B09140
:10036000CE013091CA0123E0230F2D3720F40196EE
:10037000A11DB11D05C026E8230F0296A11DB11DC8
:100380002093CA018093CB019093CC01A093CD011F
:10039000B093CE018091CF019091D001A091D10175
:1003A000B091D2010196A11DB11D8093CF01909310
:1003B000D001A093D101B093D201BF91AF919F9191
:1003C0008F913F912F910F900FBE0F901F90189516
:1003D0002FB7F8946091CB017091CC018091CD0141
:1003E0009091CE012FBF08953FB7F8948091CF012F
:1003F0009091D001A091D101B091D20126B5A89BD6
:1004000005C02F3F19F00196A11DB11D3FBF662702
:10041000782F892F9A2F620F711D811D911D42E047
:10042000660F771F881F991F4A95D1F70895CF92BD
:10043000DF92EF92FF92CF93DF936B017C010E94DA
:10044000F401EB01C114D104E104F10489F00E942C
:10045000DC050E94F4016C1B7D0B683E734090F339
:1004600081E0C81AD108E108F108C851DC4FEACF91
:10047000DF91CF91FF90EF90DF90CF900895789427
:1004800084B5826084BD84B5816084BD85B5826099
:1004900085BD85B5816085BDEEE6F0E08081816037
:1004A0008083E1E8F0E01082808182608083808137
:1004B00081608083E0E8F0E0808181608083E1EB0F
:1004C000F0E0808184608083E0EBF0E080818160F7
:1004D0008083EAE7F0E080818460808380818260AD
:1004E0008083808181608083808180688083109296
:1004F000C10008958E3008F08E5087702091000161
:1005000090E4299F90011124822B80937C0080919C
:100510007A00806480937A0080917A0086FDFCCF17
:10052000809178002091790090E0922B08951F939C
:10053000CF93DF93182FEB0161E00E941F032097F8
:1005400011F460E004C0CF3FD10539F461E0812FA0
:10055000DF91CF911F910C945803E12FF0E0E859FF
:10056000FF4FE491E330F9F048F4E130B9F0E230C4
:10057000A1F584B5806284BDC8BD34C0E730E9F020
:10058000E83019F1E43049F5809180008062809371
:100590008000D0938B00C0938A0024C084B580680B
:1005A00084BDC7BD1FC0809180008068809380009B
:1005B000D0938900C093880015C08091B0008068F6
:1005C0008093B000C093B3000DC08091B0008062F2
:1005D0008093B000C093B40005C0C038D1050CF0C2
:1005E000B5CFAFCFDF91CF911F910895833081F0C8
:1005F00028F4813099F08230A1F008958730A9F075
:100600008830B9F08430D1F4809180008F7D03C0B0
:10061000809180008F7780938000089584B58F77D4
:1006200002C084B58F7D84BD08958091B0008F771E
:1006300003C08091B0008F7D8093B0000895CF9368
:10064000DF9390E0FC01E458FF4F2491FC01E05758
:10065000FF4F8491882349F190E0880F991FFC0196
:10066000E255FF4FA591B4918C559F4FFC01C59168
:10067000D4919FB7611108C0F8948C912095822382
:100680008C93888182230AC0623051F4F8948C9153
:10069000322F309583238C938881822B888304C0EA
:1006A000F8948C91822B8C939FBFDF91CF9108950A
:1006B0000F931F93CF93DF931F92CDB7DEB7282FF1
:1006C00030E0F901E859FF4F8491F901E458FF4FF8
:1006D0001491F901E057FF4F04910023C9F08823DA
:1006E00021F069830E94F6026981E02FF0E0EE0FAD
:1006F000FF1FEC55FF4FA591B4919FB7F8948C91D3
:10070000611103C01095812301C0812B8C939FBF81
:100710000F90DF91CF911F910F910895FC01818D72
:10072000228D90E0805C9F4F821B91098F739927E7
:100730000895FC01918D828D981731F0828DE80F1C
:10074000F11D858D90E008958FEF9FEF0895FC01D6
:10075000918D828D981761F0828DDF01A80FB11DF8
:100760005D968C91928D9F5F9F73928F90E008951C
:100770008FEF9FEF08958BE295E0892B49F080E0A1
:1007800090E0892B29F00E942B0581110C94000028
:100790000895FC01848DDF01A80FB11DA35ABF4F3E
:1007A0002C91848D90E001968F739927848FA68970
:1007B000B7892C93A089B1898C9180648C93938D97
:1007C000848D981306C00288F389E02D80818F7D87
:1007D00080830895CF93DF93EC01888D8823C9F03F
:1007E000EA89FB89808185FD05C0A889B9898C913A
:1007F00086FD0FC00FB607FCF5CF808185FFF2CFD5
:10080000A889B9898C9185FFEDCFCE010E94C903DB
:10081000E7CFDF91CF910895CF92DF92FF920F93B0
:100820001F93CF93DF931F92CDB7DEB76C0181E0AA
:10083000D60158968C9358975B969C915B975C96E3
:100840008C915C97981307C05096ED91FC9151974D
:10085000808185FD2EC0F601038D10E00F5F1F4FD4
:100860000F731127F02EF601848DF81211C00FB608
:1008700007FCF9CFD6015096ED91FC9151978081FC
:1008800085FFF1CFC60169830E94C9036981EBCF5F
:10089000838DE80FF11DE35AFF4F6083D6015B960D
:1008A0000C935B975296ED91FC91539780818062F7
:1008B0000CC0D6015696ED91FC91579760835096E7
:1008C000ED91FC91519780818064808381E090E07C
:1008D0000F90DF91CF911F910F91FF90DF90CF90FC
:1008E0000895BF92CF92DF92EF92FF92CF93DF9362
:1008F000EC016A017B01B22EE889F98982E08083EC
:10090000411581EE580761057105A1F060E079E0BD
:100910008DE390E0A70196010E94DD052150310989
:10092000410951095695479537952795211580E13D
:10093000380798F0E889F989108260E874E88EE158
:1009400090E0A70196010E94DD052150310941097F
:1009500051095695479537952795EC85FD85308348
:10096000EE85FF852083188EEC89FD89B082EA89A7
:10097000FB89808180618083EA89FB89808188602E
:100980008083EA89FB89808180688083EA89FB898A
:1009900080818F7D8083DF91CF91FF90EF90DF90FA
:1009A000CF90BF9008951F920F920FB60F9211240F
:1009B0002F938F939F93EF93FF93E091E301F09137
:1009C000E4018081E091E901F091EA0182FD12C029
:1009D00090818091EC018F5F8F732091ED018217E0
:1009E00051F0E091EC01F0E0ED52FE4F958F8093D5
:1009F000EC0101C08081FF91EF919F918F912F9128
:100A00000F900FBE0F901F9018951F920F920FB668
:100A10000F9211242F933F934F935F936F937F9384
:100A20008F939F93AF93BF93EF93FF9383ED91E0E9
:100A30000E94C903FF91EF91BF91AF919F918F9158
:100A40007F916F915F914F913F912F910F900FBECA
:100A50000F901F90189583ED91E00E948E0321E086
:100A6000892B09F420E0822F08951092D60110926C
:100A7000D50188EE93E0A0E0B0E08093D701909399
:100A8000D801A093D901B093DA018DEA91E0909357
:100A9000D4018093D30185EC90E09093E0018093A2
:100AA000DF0184EC90E09093E2018093E10180EC1F
:100AB00090E09093E4018093E30181EC90E09093C7
:100AC000E6018093E50182EC90E09093E801809349
:100AD000E70186EC90E09093EA018093E90110929F
:100AE000EC011092ED011092EE011092EF010895C9
:100AF000CF92DF92EF92FF920F931F93CF93DF93EA
:100B00006C017A01EB01E60EF71E00E010E0CE1555
:100B1000DF0561F06991D601ED91FC910190F081C2
:100B2000E02DC6010995080F191FF1CFC801DF910B
:100B3000CF911F910F91FF90EF90DF90CF9008958C
:100B40006115710581F0DB010D900020E9F7AD0121
:100B500041505109461B570BDC01ED91FC9102807D
:100B6000F381E02D099480E090E0089569EB71E055
:100B70000C94A0050F931F93CF93DF93EC010E9479
:100B8000A0058C01CE010E94B605800F911FDF9158
:100B9000CF911F910F91089508950E943F020E94E6
:100BA000CC050E942801CBEBD3E00E9446012097A0
:100BB000E1F30E94BB03F9CF0895A1E21A2EAA1B0C
:100BC000BB1BFD010DC0AA1FBB1FEE1FFF1FA217FD
:100BD000B307E407F50720F0A21BB30BE40BF50BFA
:100BE000661F771F881F991F1A9469F76095709583
:100BF000809590959B01AC01BD01CF010895EE0F4A
:100C0000FF1F0590F491E02D0994AEE0B0E0EBE019
:100C1000F6E00C94A7088C0186E08C831A83098384
:100C20008FEF9FE79E838D83CE0101960E94210660
:100C3000EF81F885E00FF11F10822E96E4E00C940E
:100C4000C308ACE0B0E0E7E2F6E00C9499087C0160
:100C50006B018A01FC0117821682838181FFBDC16D
:100C6000CE0101964C01F7019381F60193FD859128
:100C700093FF81916F01882309F4ABC1853239F468
:100C800093FD859193FF81916F01853229F4B7011E
:100C900090E00E940908E7CF512C312C20E020324F
:100CA000A0F48B3269F030F4803259F0833269F469
:100CB00020612CC08D3239F0803339F4216026C098
:100CC0002260246023C0286021C027FD27C030EDAA
:100CD000380F3A3078F426FF06C0FAE05F9E300DF8
:100CE0001124532E13C08AE0389E300D1124332E68
:100CF00020620CC08E3221F426FD6BC1206406C038
:100D00008C3611F4206802C0883641F4F60193FD58
:100D1000859193FF81916F018111C1CF982F9F7DA4
:100D20009554933028F40C5F1F4FFFE3F9830DC0F7
:100D3000833631F0833771F0833509F05BC022C010
:100D4000F801808189830E5F1F4F44244394512C06
:100D5000540115C03801F2E06F0E711CF801A0803B
:100D6000B18026FF03C0652D70E002C06FEF7FEFFA
:100D7000C5012C870E94FE072C0183012C852F774B
:100D8000222E17C03801F2E06F0E711CF801A0800E
:100D9000B18026FF03C0652D70E002C06FEF7FEFCA
:100DA000C5012C870E94F3072C012C852068222E78
:100DB000830123FC1BC0832D90E048165906B0F434
:100DC000B70180E290E00E9409083A94F4CFF5015F
:100DD00027FC859127FE81915F01B70190E00E9479
:100DE000090831103A94F1E04F1A510841145104A6
:100DF00071F7E5C0843611F0893639F5F80127FF1F
:100E000007C060817181828193810C5F1F4F08C090
:100E100060817181882777FD8095982F0E5F1F4F25
:100E20002F76B22E97FF09C09095809570956195A9
:100E30007F4F8F4F9F4F2068B22E2AE030E0A401F1
:100E40000E943B08A82EA81844C0853729F42F7E9D
:100E5000B22E2AE030E025C0F22FF97FBF2E8F3668
:100E6000C1F018F4883579F0B4C0803719F08837AC
:100E700021F0AFC02F2F2061B22EB4FE0DC08B2DFC
:100E80008460B82E09C024FF0AC09F2F9660B92E37
:100E900006C028E030E005C020E130E002C020E1DB
:100EA00032E0F801B7FE07C06081718182819381D1
:100EB0000C5F1F4F06C06081718180E090E00E5F83
:100EC0001F4FA4010E943B08A82EA818FB2DFF77F6
:100ED000BF2EB6FE0BC02B2D2E7FA51450F4B4FEF2
:100EE0000AC0B2FC08C02B2D2E7E05C07A2C2B2DFB
:100EF00003C07A2C01C0752C24FF0DC0FE01EA0D41
:100F0000F11D8081803311F4297E09C022FF06C0C3
:100F10007394739404C0822F867809F0739423FD30
:100F200013C020FF06C05A2C731418F4530C571822
:100F3000732C731468F4B70180E290E02C870E9450
:100F4000090873942C85F5CF731410F4371801C079
:100F5000312C24FF12C0B70180E390E02C870E945F
:100F600009082C8522FF17C021FF03C088E590E007
:100F700002C088E790E0B7010CC0822F867859F054
:100F800021FD02C080E201C08BE227FD8DE2B701A6
:100F900090E00E940908A51438F4B70180E390E0BE
:100FA0000E9409085A94F7CFAA94F401EA0DF11DA2
:100FB0008081B70190E00E940908A110F5CF33208D
:100FC00009F451CEB70180E290E00E9409083A94FA
:100FD000F6CFF7018681978102C08FEF9FEF2C96A5
:100FE000E2E10C94B508FC010590615070400110DD
:100FF000D8F7809590958E0F9F1F0895FC01615042
:10100000704001900110D8F7809590958E0F9F1F2A
:1010100008950F931F93CF93DF93182F092FEB01A0
:101020008B8181FD03C08FEF9FEF20C082FF10C036
:101030004E815F812C813D81421753077CF4E8810A
:10104000F9819F012F5F3F4F39832883108306C0AA
:10105000E885F985812F0995892B29F72E813F8114
:101060002F5F3F4F3F832E83812F902FDF91CF91B2
:101070001F910F910895FA01AA27283051F12031CC
:1010800081F1E8946F936E7F6E5F7F4F8F4F9F4F1C
:10109000AF4FB1E03ED0B4E03CD0670F781F891F5E
:1010A0009A1FA11D680F791F8A1F911DA11D6A0F2C
:1010B000711D811D911DA11D20D009F468943F91DF
:1010C0002AE0269F11243019305D3193DEF6CF01DE
:1010D0000895462F4770405D4193B3E00FD0C9F7A4
:1010E000F6CF462F4F70405D4A3318F0495D31FD11
:1010F0004052419302D0A9F7EACFB4E0A695979564
:10110000879577956795BA95C9F700976105710539
:1011100008959B01AC010A2E069457954795379583
:101120002795BA95C9F7620F731F841F951FA01DDD
:1011300008952F923F924F925F926F927F928F927B
:101140009F92AF92BF92CF92DF92EF92FF920F9356
:101150001F93CF93DF93CDB7DEB7CA1BDB0B0FB660
:10116000F894DEBF0FBECDBF09942A88398848881D
:101170005F846E847D848C849B84AA84B984C884B3
:10118000DF80EE80FD800C811B81AA81B981CE0FAA
:10119000D11D0FB6F894DEBF0FBECDBFED0108958F
:0411A000F894FFCFF1
:1011A40001416D702073656E736F722072656164A6
:1011B400696E673A202564006D6F76696E672061F9
:1011C40063747561746F7220646972656374696FA6
:1011D4006E3D25642C2073706565643D2564007341
:1011E4006574757020636F6D706C6574650046413D
:1011F400494C5552453A2073656E73696E67206D8C
:101204006F76656D656E74206F6E206163747561B1
:10121400746F72207768656E2069742073686F75C7
:101224006C64206E6F74206265006D6F7665642057
:10123400656E6420746F20656E64202825642920FF
:10124400696E20256C646D7300000000000C047846
:10125400058E03A7039903EA030D0A006E616E006D
:0A126400696E66006F7666002E00CA
:00000001FF
